:020000040800F2
:100000000000012001040008510400085104000808
:1000100051040008510400085104000800000000C9
:100020000000000000000000000000005104000873
:1000300051040008000000005104000851040008A9
:100040000000000051040008510400085104000899
:10005000510400085104000851040008510400082C
:10006000510400085104000851040008510400081C
:10007000510400085104000851040008510400080C
:100080005104000851040008510400080000000059
:100090000000000000000000000000005104000803
:1000A00051040008510400085104000851040008DC
:1000B00051040008510400085104000851040008CC
:1000C00051040008510400085104000851040008BC
:1000D0005104000851040008510400080000000009
:1000E00051040008510400085104000800000000F9
:1000F00000000000000000000000000051040008A3
:1001000000000000510400085104000851040008D8
:1001100000000000000000000000000000000000DF
:10012000510400085104000851040008510400085B
:100130005104000800000000000000000000000062
:100140000000000000000000000000005104000852
:10015000510400085104000851040008510400082B
:1001600051040008510400080000000000000000D5
:10017000000000000000000000000000000000007F
:10018000000000000000000000000000000000006F
:04019000510400080E
:1001940010B5054C237833B9044B13B10448AFF3BD
:1001A40000800123237010BD000000200000000027
:1001B4009C04000808B5034B1BB103490348AFF383
:1001C400008008BD00000000040000209C0400081A
:1001D40080B483B000AF78607B68124A934206D142
:1001E400114B1B6B104A43F00103136314E07B684B
:1001F4000E4A934206D10C4B1B6B0B4A43F002038D
:10020400136309E07B680A4A934205D1064B1B6BD2
:10021400054A43F00403136300BF0C37BD465DF881
:10022400047B704700000240003802400004024092
:100234000008024080B485B000AFF860B9607A600D
:100244003B60FB681A68BB685B00032101FA03F397
:10025400DB431A40FB681A60FB681A68BB685B00E2
:10026400796801FA03F31A43FB681A60FB689A6819
:10027400BB685B00032101FA03F3DB431A40FB680C
:100284009A60FB689A68BB685B00396801FA03F3FB
:100294001A43FB689A607B68012B13D1FB685A6888
:1002A4000121BB6801FA03F3DB431A40FB685A607F
:1002B400FB685A68B969BB6801FA03F31A43FB681F
:1002C4005A6017E07B68002B14D1FB68DA68BB68BE
:1002D4005B00032101FA03F3DB431A40FB68DA6095
:1002E400FB68DA68BB685B00F96901FA03F31A4337
:1002F400FB68DA6000BF1437BD465DF8047B7047C5
:1003040080B483B000AF786039607B681A693B6859
:1003140042FA03F303F0010318460C37BD465DF8B7
:10032400047B704780B485B000AFF860B9607A6030
:10033400FB685A690121BB6801FA03F3DB431A40E5
:10034400FB685A61FB685A697968BB6801FA03F370
:100354001A43FB685A6100BF1437BD465DF8047B3D
:10036400704780B485B000AF78600023FB6002E082
:10037400FB680133FB607B684FF47A7202FB03F382
:10038400FA689A42F4DB00BF00BF1437BD465DF83B
:10039400047B704780B584B002AF1748FFF718FF9D
:1003A4000023019300230093002301220221124819
:1003B400FFF740FF02230193002300930023002250
:1003C40004210D48FFF736FF04210B48FFF798FF7F
:1003D40078603220FFF7C5FF7B68012B05D101222D
:1003E40002210548FFF79EFFEEE7002202210248A2
:1003F400FFF798FFE8E700BF000002400D4885467C
:10040400AFF300800C480D490D4A002302E0D45894
:10041400C4500433C4188C42F9D30A4A0A4C00234A
:1004240001E013600432A242FBD300F011F8FFF79D
:10043400B1FFFEE7000001200000002000000020C2
:10044400BC040008000000201C000020FEE700009F
:1004540070B50D4D0D4C641BA4100026A64209D1A5
:100464000B4D0C4C00F018F8641BA4100026A64297
:1004740005D170BD55F8043B98470136EEE755F8B1
:10048400043B98470136F2E7B4040008B4040008BA
:10049400B4040008B8040008F8B500BFF8BC08BCF0
:1004A4009E467047F8B500BFF8BC08BC9E4670472E
:0404B400B901000882
:0404B80095010008A2
:0400000508000401EA
:00000001FF
